{
  "contractName": "WakandaVotingPlatform",
  "abi": [
    {
      "inputs": [
        {
          "internalType": "contract WKND",
          "name": "_token",
          "type": "address"
        }
      ],
      "stateMutability": "nonpayable",
      "type": "constructor"
    },
    {
      "anonymous": false,
      "inputs": [
        {
          "components": [
            {
              "internalType": "string",
              "name": "name",
              "type": "string"
            },
            {
              "internalType": "uint256",
              "name": "age",
              "type": "uint256"
            },
            {
              "internalType": "string",
              "name": "cult",
              "type": "string"
            },
            {
              "internalType": "uint256",
              "name": "votes",
              "type": "uint256"
            }
          ],
          "indexed": false,
          "internalType": "struct IWakandaVotingPlatform.Candidate",
          "name": "newChallenger",
          "type": "tuple"
        }
      ],
      "name": "NewChallenger",
      "type": "event"
    },
    {
      "inputs": [],
      "name": "hasEnded",
      "outputs": [
        {
          "internalType": "bool",
          "name": "",
          "type": "bool"
        }
      ],
      "stateMutability": "view",
      "type": "function",
      "constant": true
    },
    {
      "inputs": [
        {
          "internalType": "uint256",
          "name": "",
          "type": "uint256"
        }
      ],
      "name": "leadingCandidates",
      "outputs": [
        {
          "internalType": "uint256",
          "name": "",
          "type": "uint256"
        }
      ],
      "stateMutability": "view",
      "type": "function",
      "constant": true
    },
    {
      "inputs": [],
      "name": "owner",
      "outputs": [
        {
          "internalType": "address",
          "name": "",
          "type": "address"
        }
      ],
      "stateMutability": "view",
      "type": "function",
      "constant": true
    },
    {
      "inputs": [],
      "name": "token",
      "outputs": [
        {
          "internalType": "contract WKND",
          "name": "",
          "type": "address"
        }
      ],
      "stateMutability": "view",
      "type": "function",
      "constant": true
    },
    {
      "inputs": [
        {
          "internalType": "address",
          "name": "voterAddress",
          "type": "address"
        }
      ],
      "name": "isRegistered",
      "outputs": [
        {
          "internalType": "bool",
          "name": "",
          "type": "bool"
        }
      ],
      "stateMutability": "view",
      "type": "function",
      "constant": true
    },
    {
      "inputs": [
        {
          "internalType": "address",
          "name": "voterAddress",
          "type": "address"
        }
      ],
      "name": "registerVoter",
      "outputs": [],
      "stateMutability": "nonpayable",
      "type": "function"
    },
    {
      "inputs": [
        {
          "internalType": "address",
          "name": "voterAddress",
          "type": "address"
        },
        {
          "internalType": "uint256",
          "name": "amount",
          "type": "uint256"
        }
      ],
      "name": "checkBalance",
      "outputs": [
        {
          "internalType": "bool",
          "name": "",
          "type": "bool"
        }
      ],
      "stateMutability": "view",
      "type": "function",
      "constant": true
    },
    {
      "inputs": [
        {
          "internalType": "address",
          "name": "voterAddress",
          "type": "address"
        }
      ],
      "name": "hasVoted",
      "outputs": [
        {
          "internalType": "bool",
          "name": "",
          "type": "bool"
        }
      ],
      "stateMutability": "view",
      "type": "function",
      "constant": true
    },
    {
      "inputs": [
        {
          "internalType": "uint256",
          "name": "candidateId",
          "type": "uint256"
        },
        {
          "internalType": "uint256",
          "name": "voteAmount",
          "type": "uint256"
        },
        {
          "internalType": "address",
          "name": "voterAddress",
          "type": "address"
        }
      ],
      "name": "vote",
      "outputs": [],
      "stateMutability": "nonpayable",
      "type": "function"
    },
    {
      "inputs": [],
      "name": "endElection",
      "outputs": [],
      "stateMutability": "nonpayable",
      "type": "function"
    }
  ],
  "bytecode": "0x60806040523480156200001157600080fd5b50604051620017ee380380620017ee83398181016040528101906200003791906200013d565b336000806101000a81548173ffffffffffffffffffffffffffffffffffffffff021916908373ffffffffffffffffffffffffffffffffffffffff16021790555080600160006101000a81548173ffffffffffffffffffffffffffffffffffffffff021916908373ffffffffffffffffffffffffffffffffffffffff160217905550506200016f565b600080fd5b600073ffffffffffffffffffffffffffffffffffffffff82169050919050565b6000620000f182620000c4565b9050919050565b60006200010582620000e4565b9050919050565b6200011781620000f8565b81146200012357600080fd5b50565b60008151905062000137816200010c565b92915050565b600060208284031215620001565762000155620000bf565b5b6000620001668482850162000126565b91505092915050565b61166f806200017f6000396000f3fe608060405234801561001057600080fd5b506004361061009e5760003560e01c80638da5cb5b116100665780638da5cb5b14610145578063c3c5a54714610163578063ca4ab70e14610193578063ecb70fb7146101c3578063fc0c546a146101e15761009e565b806309eef43e146100a357806338db6dd3146100d35780634d7b9bd5146100ef57806350d915831461011f57806359f784681461013b575b600080fd5b6100bd60048036038101906100b89190610c58565b6101ff565b6040516100ca9190610ca0565b60405180910390f35b6100ed60048036038101906100e89190610c58565b610255565b005b61010960048036038101906101049190610cf1565b6103d6565b6040516101169190610ca0565b60405180910390f35b61013960048036038101906101349190610d31565b61047f565b005b610143610724565b005b61014d6107ce565b60405161015a9190610d93565b60405180910390f35b61017d60048036038101906101789190610c58565b6107f2565b60405161018a9190610ca0565b60405180910390f35b6101ad60048036038101906101a89190610dae565b610848565b6040516101ba9190610dea565b60405180910390f35b6101cb61086c565b6040516101d89190610ca0565b60405180910390f35b6101e961087f565b6040516101f69190610e64565b60405180910390f35b6000600360008373ffffffffffffffffffffffffffffffffffffffff1673ffffffffffffffffffffffffffffffffffffffff16815260200190815260200160002060009054906101000a900460ff169050919050565b61025e816107f2565b1561029e576040517f08c379a000000000000000000000000000000000000000000000000000000000815260040161029590610f02565b60405180910390fd5b600160149054906101000a900460ff16156102ee576040517f08c379a00000000000000000000000000000000000000000000000000000000081526004016102e590610f94565b60405180910390fd5b6001600260008373ffffffffffffffffffffffffffffffffffffffff1673ffffffffffffffffffffffffffffffffffffffff16815260200190815260200160002060006101000a81548160ff021916908315150217905550600160009054906101000a900473ffffffffffffffffffffffffffffffffffffffff1673ffffffffffffffffffffffffffffffffffffffff16636a627842826040518263ffffffff1660e01b81526004016103a19190610d93565b600060405180830381600087803b1580156103bb57600080fd5b505af11580156103cf573d6000803e3d6000fd5b5050505050565b600081600160009054906101000a900473ffffffffffffffffffffffffffffffffffffffff1673ffffffffffffffffffffffffffffffffffffffff166370a08231856040518263ffffffff1660e01b81526004016104349190610d93565b602060405180830381865afa158015610451573d6000803e3d6000fd5b505050506040513d601f19601f820116820180604052508101906104759190610fc9565b1015905092915050565b600160149054906101000a900460ff16156104cf576040517f08c379a00000000000000000000000000000000000000000000000000000000081526004016104c690611068565b60405180910390fd5b6104d8816101ff565b15610518576040517f08c379a000000000000000000000000000000000000000000000000000000000815260040161050f906110fa565b60405180910390fd5b61052281836103d6565b610561576040517f08c379a00000000000000000000000000000000000000000000000000000000081526004016105589061118c565b60405180910390fd5b60008310158015610576575060048054905083105b6105b5576040517f08c379a00000000000000000000000000000000000000000000000000000000081526004016105ac9061121e565b60405180910390fd5b600160009054906101000a900473ffffffffffffffffffffffffffffffffffffffff1673ffffffffffffffffffffffffffffffffffffffff16639dc29fac82846040518363ffffffff1660e01b815260040161061292919061123e565b600060405180830381600087803b15801561062c57600080fd5b505af1158015610640573d6000803e3d6000fd5b50505050816004848154811061065957610658611267565b5b9060005260206000209060040201600301600082825461067991906112c5565b92505081905550610689836108a5565b1580156106ab5750600360058054905010806106aa57506106a983610908565b5b5b156106be576106b983610989565b6106c7565b6106c6610a4d565b5b6001600360008373ffffffffffffffffffffffffffffffffffffffff1673ffffffffffffffffffffffffffffffffffffffff16815260200190815260200160002060006101000a81548160ff021916908315150217905550505050565b60008054906101000a900473ffffffffffffffffffffffffffffffffffffffff1673ffffffffffffffffffffffffffffffffffffffff163373ffffffffffffffffffffffffffffffffffffffff16146107b2576040517f08c379a00000000000000000000000000000000000000000000000000000000081526004016107a9906113b3565b60405180910390fd5b60018060146101000a81548160ff021916908315150217905550565b60008054906101000a900473ffffffffffffffffffffffffffffffffffffffff1681565b6000600260008373ffffffffffffffffffffffffffffffffffffffff1673ffffffffffffffffffffffffffffffffffffffff16815260200190815260200160002060009054906101000a900460ff169050919050565b6005818154811061085857600080fd5b906000526020600020016000915090505481565b600160149054906101000a900460ff1681565b600160009054906101000a900473ffffffffffffffffffffffffffffffffffffffff1681565b600080600090505b6005805490508110156108fd5782600582815481106108cf576108ce611267565b5b906000526020600020015414156108ea576001915050610903565b80806108f5906113d3565b9150506108ad565b50600090505b919050565b6000806005805490501115610983576005600160058054905061092b919061141c565b8154811061093c5761093b611267565b5b90600052602060002001546004838154811061095b5761095a611267565b5b9060005260206000209060040201600301541161097957600061097c565b60015b9050610984565b5b919050565b600360058054905010156109c55760058190806001815401808255809150506001900390600052602060002001600090919091909150556109f2565b8060056002815481106109db576109da611267565b5b90600052602060002001819055506109f1610a4d565b5b7f50a2557849d67557469639ee41d82ba4ea007b58e1fcd98f0c795828d35901c060048281548110610a2757610a26611267565b5b9060005260206000209060040201604051610a429190611617565b60405180910390a150565b60005b6001600580549050610a62919061141c565b811015610bf25760005b600182600580549050610a7f919061141c565b610a89919061141c565b811015610bde5760046005600183610aa191906112c5565b81548110610ab257610ab1611267565b5b906000526020600020015481548110610ace57610acd611267565b5b906000526020600020906004020160030154600460058381548110610af657610af5611267565b5b906000526020600020015481548110610b1257610b11611267565b5b9060005260206000209060040201600301541015610bcb57600060058281548110610b4057610b3f611267565b5b906000526020600020015490506005600183610b5c91906112c5565b81548110610b6d57610b6c611267565b5b906000526020600020015460058381548110610b8c57610b8b611267565b5b9060005260206000200181905550806005600184610baa91906112c5565b81548110610bbb57610bba611267565b5b9060005260206000200181905550505b8080610bd6906113d3565b915050610a6c565b508080610bea906113d3565b915050610a50565b50565b600080fd5b600073ffffffffffffffffffffffffffffffffffffffff82169050919050565b6000610c2582610bfa565b9050919050565b610c3581610c1a565b8114610c4057600080fd5b50565b600081359050610c5281610c2c565b92915050565b600060208284031215610c6e57610c6d610bf5565b5b6000610c7c84828501610c43565b91505092915050565b60008115159050919050565b610c9a81610c85565b82525050565b6000602082019050610cb56000830184610c91565b92915050565b6000819050919050565b610cce81610cbb565b8114610cd957600080fd5b50565b600081359050610ceb81610cc5565b92915050565b60008060408385031215610d0857610d07610bf5565b5b6000610d1685828601610c43565b9250506020610d2785828601610cdc565b9150509250929050565b600080600060608486031215610d4a57610d49610bf5565b5b6000610d5886828701610cdc565b9350506020610d6986828701610cdc565b9250506040610d7a86828701610c43565b9150509250925092565b610d8d81610c1a565b82525050565b6000602082019050610da86000830184610d84565b92915050565b600060208284031215610dc457610dc3610bf5565b5b6000610dd284828501610cdc565b91505092915050565b610de481610cbb565b82525050565b6000602082019050610dff6000830184610ddb565b92915050565b6000819050919050565b6000610e2a610e25610e2084610bfa565b610e05565b610bfa565b9050919050565b6000610e3c82610e0f565b9050919050565b6000610e4e82610e31565b9050919050565b610e5e81610e43565b82525050565b6000602082019050610e796000830184610e55565b92915050565b600082825260208201905092915050565b7f57616b616e6461566f74696e67506c6174666f726d3a3a72656769737465725660008201527f6f7465723a20566f74657220616c726561647920726567697374657265640000602082015250565b6000610eec603e83610e7f565b9150610ef782610e90565b604082019050919050565b60006020820190508181036000830152610f1b81610edf565b9050919050565b7f57616b616e6461566f74696e67506c6174666f726d3a3a72656769737465725660008201527f6f7465723a20456c656374696f6e2068617320656e6465640000000000000000602082015250565b6000610f7e603883610e7f565b9150610f8982610f22565b604082019050919050565b60006020820190508181036000830152610fad81610f71565b9050919050565b600081519050610fc381610cc5565b92915050565b600060208284031215610fdf57610fde610bf5565b5b6000610fed84828501610fb4565b91505092915050565b7f57616b616e6461566f74696e67506c6174666f726d3a3a766f74653a20456c6560008201527f6374696f6e2068617320656e6465640000000000000000000000000000000000602082015250565b6000611052602f83610e7f565b915061105d82610ff6565b604082019050919050565b6000602082019050818103600083015261108181611045565b9050919050565b7f57616b616e6461566f74696e67506c6174666f726d3a3a766f74653a20596f7560008201527f206861766520616c726561647920766f74656400000000000000000000000000602082015250565b60006110e4603383610e7f565b91506110ef82611088565b604082019050919050565b60006020820190508181036000830152611113816110d7565b9050919050565b7f57616b616e6461566f74696e67506c6174666f726d3a3a766f74653a20496e7360008201527f756666696369656e742066756e64730000000000000000000000000000000000602082015250565b6000611176602f83610e7f565b91506111818261111a565b604082019050919050565b600060208201905081810360008301526111a581611169565b9050919050565b7f57616b616e6461566f74696e67506c6174666f726d3a3a766f74653a20496e7660008201527f616c69642063616e646964617465204944000000000000000000000000000000602082015250565b6000611208603183610e7f565b9150611213826111ac565b604082019050919050565b60006020820190508181036000830152611237816111fb565b9050919050565b60006040820190506112536000830185610d84565b6112606020830184610ddb565b9392505050565b7f4e487b7100000000000000000000000000000000000000000000000000000000600052603260045260246000fd5b7f4e487b7100000000000000000000000000000000000000000000000000000000600052601160045260246000fd5b60006112d082610cbb565b91506112db83610cbb565b9250827fffffffffffffffffffffffffffffffffffffffffffffffffffffffffffffffff038211156113105761130f611296565b5b828201905092915050565b7f57616b616e6461566f74696e67506c6174666f726d3a3a656e64456c6563746960008201527f6f6e3a204f6e6c79206f776e65722063616e20656e642074686520656c65637460208201527f696f6e0000000000000000000000000000000000000000000000000000000000604082015250565b600061139d604383610e7f565b91506113a88261131b565b606082019050919050565b600060208201905081810360008301526113cc81611390565b9050919050565b60006113de82610cbb565b91507fffffffffffffffffffffffffffffffffffffffffffffffffffffffffffffffff82141561141157611410611296565b5b600182019050919050565b600061142782610cbb565b915061143283610cbb565b92508282101561144557611444611296565b5b828203905092915050565b7f4e487b7100000000000000000000000000000000000000000000000000000000600052602260045260246000fd5b6000600282049050600182168061149757607f821691505b602082108114156114ab576114aa611450565b5b50919050565b600082825260208201905092915050565b60008190508160005260206000209050919050565b600081546114e48161147f565b6114ee81866114b1565b94506001821660008114611509576001811461151b5761154e565b60ff198316865260208601935061154e565b611524856114c2565b60005b8381101561154657815481890152600182019150602081019050611527565b808801955050505b50505092915050565b60008160001c9050919050565b6000819050919050565b600061158161157c83611557565b611564565b9050919050565b61159181610cbb565b82525050565b600060808301600080840185830360008701526115b483826114d7565b925050600184015490506115c78161156e565b6115d46020870182611588565b506002840185830360408701526115eb83826114d7565b925050600384015490506115fe8161156e565b61160b6060870182611588565b50819250505092915050565b600060208201905081810360008301526116318184611597565b90509291505056fea26469706673582212200b5f9c6cf375ba7331040d606de11e597337315e491e31e2a2228a53fdf27e2764736f6c634300080b0033",
  "immutableReferences": {},
  "source": "//SPDX-License-Identifier: MIT\r\npragma solidity ^0.8.0;\r\n\r\nimport './interfaces/IWakandaVotingPlatform.sol';\r\nimport './WKND.sol';\r\n\r\ncontract WakandaVotingPlatform is IWakandaVotingPlatform{\r\n\r\n    address public owner;\r\n    WKND public token;\r\n\r\n    bool public hasEnded;\r\n\r\n    mapping(address => bool) registeredVoters;\r\n    mapping(address => bool) voted;\r\n\r\n    Candidate[] candidates;\r\n    uint256[] public leadingCandidates;\r\n\r\n    constructor (WKND _token){\r\n        owner = msg.sender;\r\n        token = _token;\r\n    }\r\n\r\n    function isRegistered(address voterAddress) override public view returns (bool){\r\n        return registeredVoters[voterAddress];\r\n    }\r\n\r\n    function registerVoter(address voterAddress) override external { \r\n        require(!isRegistered(voterAddress), \"WakandaVotingPlatform::registerVoter: Voter already registered\");\r\n        require(!hasEnded, \"WakandaVotingPlatform::registerVoter: Election has ended\");\r\n        \r\n        registeredVoters[voterAddress] = true;\r\n        token.mint(voterAddress);\r\n    }\r\n\r\n    function checkBalance(address voterAddress, uint256 amount) override public view returns(bool){\r\n        return token.balanceOf(voterAddress) >= amount;\r\n    }\r\n\r\n    //check if the candidate is already in a leading position\r\n    function isLeading(uint256 candidateId) internal view returns(bool){\r\n        for(uint i = 0; i < leadingCandidates.length; i++){\r\n            if(leadingCandidates[i] == candidateId)\r\n                return true;\r\n        }\r\n\r\n        return false;\r\n    }\r\n\r\n    //returns true if the candidate has potential to enter a leading position\r\n    function hasPotential(uint256 candidateId) internal view returns(bool){\r\n        if(leadingCandidates.length > 0){\r\n            return candidates[candidateId].votes > leadingCandidates[leadingCandidates.length-1] ? true : false;\r\n        }\r\n    }\r\n\r\n    function sortLeading() internal {\r\n        for(uint i = 0; i < leadingCandidates.length-1; i++){\r\n            for(uint j = 0; j < leadingCandidates.length-i-1; j++){\r\n                if(candidates[leadingCandidates[j]].votes < candidates[leadingCandidates[j+1]].votes){\r\n                    uint256 tmp = leadingCandidates[j];\r\n                    leadingCandidates[j] = leadingCandidates[j+1];\r\n                    leadingCandidates[j+1] = tmp;\r\n                }\r\n            }\r\n        }\r\n    }\r\n\r\n    function pushToLeading(uint256 candidateId) internal {\r\n        if(leadingCandidates.length < 3){\r\n            leadingCandidates.push(candidateId);\r\n        }else{\r\n            leadingCandidates[2] = candidateId;\r\n            sortLeading();\r\n        }\r\n\r\n        emit NewChallenger(candidates[candidateId]);\r\n    }\r\n\r\n    function hasVoted(address voterAddress) override public view returns(bool){\r\n        return voted[voterAddress];\r\n    }\r\n\r\n    function vote(uint256 candidateId, uint256 voteAmount, address voterAddress) override external{\r\n        require(!hasEnded, \"WakandaVotingPlatform::vote: Election has ended\");\r\n        require(!hasVoted(voterAddress), \"WakandaVotingPlatform::vote: You have already voted\");\r\n        require(checkBalance(voterAddress, voteAmount), \"WakandaVotingPlatform::vote: Insufficient funds\");\r\n        require(candidateId >= 0 && candidateId < candidates.length, \"WakandaVotingPlatform::vote: Invalid candidate ID\");\r\n\r\n        token.burn(voterAddress, voteAmount);\r\n        candidates[candidateId].votes+=voteAmount;\r\n\r\n        if(!isLeading(candidateId) && (leadingCandidates.length < 3 || hasPotential(candidateId))){\r\n            pushToLeading(candidateId);\r\n        }else{\r\n            sortLeading();\r\n        }\r\n\r\n        voted[voterAddress] = true;\r\n    }\r\n\r\n    function endElection() override external {\r\n        require(msg.sender == owner, \"WakandaVotingPlatform::endElection: Only owner can end the election\");\r\n\r\n        hasEnded = true;\r\n    }\r\n}",
  "sourcePath": "D:\\Wakanda Voting System\\smart-contracts\\contracts\\WakandaVotingPlatform.sol",
  "compiler": {
    "name": "solc",
    "version": "0.8.11+commit.d7f03943.Emscripten.clang"
  },
  "schemaVersion": "3.4.4",
  "updatedAt": "2022-02-16T19:51:57.015Z",
  "networkType": "ethereum",
  "devdoc": {
    "kind": "dev",
    "methods": {},
    "version": 1
  },
  "userdoc": {
    "kind": "user",
    "methods": {},
    "version": 1
  }
}