{
  "contractName": "WakandaVotingPlatform",
  "abi": [
    {
      "inputs": [
        {
          "internalType": "contract WKND",
          "name": "_token",
          "type": "address"
        },
        {
          "internalType": "string[]",
          "name": "allNames",
          "type": "string[]"
        },
        {
          "internalType": "uint256[]",
          "name": "allAges",
          "type": "uint256[]"
        },
        {
          "internalType": "string[]",
          "name": "allCults",
          "type": "string[]"
        }
      ],
      "stateMutability": "nonpayable",
      "type": "constructor"
    },
    {
      "anonymous": false,
      "inputs": [
        {
          "components": [
            {
              "internalType": "string",
              "name": "name",
              "type": "string"
            },
            {
              "internalType": "uint256",
              "name": "age",
              "type": "uint256"
            },
            {
              "internalType": "string",
              "name": "cult",
              "type": "string"
            },
            {
              "internalType": "uint256",
              "name": "votes",
              "type": "uint256"
            }
          ],
          "indexed": false,
          "internalType": "struct IWakandaVotingPlatform.Candidate",
          "name": "newChallenger",
          "type": "tuple"
        }
      ],
      "name": "NewChallenger",
      "type": "event"
    },
    {
      "inputs": [
        {
          "internalType": "uint256",
          "name": "",
          "type": "uint256"
        }
      ],
      "name": "candidates",
      "outputs": [
        {
          "internalType": "string",
          "name": "name",
          "type": "string"
        },
        {
          "internalType": "uint256",
          "name": "age",
          "type": "uint256"
        },
        {
          "internalType": "string",
          "name": "cult",
          "type": "string"
        },
        {
          "internalType": "uint256",
          "name": "votes",
          "type": "uint256"
        }
      ],
      "stateMutability": "view",
      "type": "function",
      "constant": true
    },
    {
      "inputs": [],
      "name": "hasEnded",
      "outputs": [
        {
          "internalType": "bool",
          "name": "",
          "type": "bool"
        }
      ],
      "stateMutability": "view",
      "type": "function",
      "constant": true
    },
    {
      "inputs": [
        {
          "internalType": "uint256",
          "name": "",
          "type": "uint256"
        }
      ],
      "name": "leadingCandidates",
      "outputs": [
        {
          "internalType": "uint256",
          "name": "",
          "type": "uint256"
        }
      ],
      "stateMutability": "view",
      "type": "function",
      "constant": true
    },
    {
      "inputs": [],
      "name": "owner",
      "outputs": [
        {
          "internalType": "address",
          "name": "",
          "type": "address"
        }
      ],
      "stateMutability": "view",
      "type": "function",
      "constant": true
    },
    {
      "inputs": [],
      "name": "token",
      "outputs": [
        {
          "internalType": "contract WKND",
          "name": "",
          "type": "address"
        }
      ],
      "stateMutability": "view",
      "type": "function",
      "constant": true
    },
    {
      "inputs": [],
      "name": "getCandidates",
      "outputs": [
        {
          "components": [
            {
              "internalType": "string",
              "name": "name",
              "type": "string"
            },
            {
              "internalType": "uint256",
              "name": "age",
              "type": "uint256"
            },
            {
              "internalType": "string",
              "name": "cult",
              "type": "string"
            },
            {
              "internalType": "uint256",
              "name": "votes",
              "type": "uint256"
            }
          ],
          "internalType": "struct IWakandaVotingPlatform.Candidate[]",
          "name": "",
          "type": "tuple[]"
        }
      ],
      "stateMutability": "view",
      "type": "function",
      "constant": true
    },
    {
      "inputs": [
        {
          "internalType": "uint256",
          "name": "index",
          "type": "uint256"
        }
      ],
      "name": "getCandidateByIndex",
      "outputs": [
        {
          "components": [
            {
              "internalType": "string",
              "name": "name",
              "type": "string"
            },
            {
              "internalType": "uint256",
              "name": "age",
              "type": "uint256"
            },
            {
              "internalType": "string",
              "name": "cult",
              "type": "string"
            },
            {
              "internalType": "uint256",
              "name": "votes",
              "type": "uint256"
            }
          ],
          "internalType": "struct IWakandaVotingPlatform.Candidate",
          "name": "",
          "type": "tuple"
        }
      ],
      "stateMutability": "view",
      "type": "function",
      "constant": true
    },
    {
      "inputs": [
        {
          "internalType": "address",
          "name": "voterAddress",
          "type": "address"
        }
      ],
      "name": "isRegistered",
      "outputs": [
        {
          "internalType": "bool",
          "name": "",
          "type": "bool"
        }
      ],
      "stateMutability": "view",
      "type": "function",
      "constant": true
    },
    {
      "inputs": [
        {
          "internalType": "address",
          "name": "voterAddress",
          "type": "address"
        }
      ],
      "name": "registerVoter",
      "outputs": [],
      "stateMutability": "nonpayable",
      "type": "function"
    },
    {
      "inputs": [
        {
          "internalType": "address",
          "name": "voterAddress",
          "type": "address"
        },
        {
          "internalType": "uint256",
          "name": "amount",
          "type": "uint256"
        }
      ],
      "name": "checkBalance",
      "outputs": [
        {
          "internalType": "bool",
          "name": "",
          "type": "bool"
        }
      ],
      "stateMutability": "view",
      "type": "function",
      "constant": true
    },
    {
      "inputs": [
        {
          "internalType": "address",
          "name": "voterAddress",
          "type": "address"
        }
      ],
      "name": "hasVoted",
      "outputs": [
        {
          "internalType": "bool",
          "name": "",
          "type": "bool"
        }
      ],
      "stateMutability": "view",
      "type": "function",
      "constant": true
    },
    {
      "inputs": [
        {
          "internalType": "uint256",
          "name": "candidateId",
          "type": "uint256"
        },
        {
          "internalType": "uint256",
          "name": "voteAmount",
          "type": "uint256"
        },
        {
          "internalType": "address",
          "name": "voterAddress",
          "type": "address"
        }
      ],
      "name": "vote",
      "outputs": [],
      "stateMutability": "nonpayable",
      "type": "function"
    },
    {
      "inputs": [],
      "name": "winningCandidates",
      "outputs": [
        {
          "components": [
            {
              "internalType": "string",
              "name": "name",
              "type": "string"
            },
            {
              "internalType": "uint256",
              "name": "age",
              "type": "uint256"
            },
            {
              "internalType": "string",
              "name": "cult",
              "type": "string"
            },
            {
              "internalType": "uint256",
              "name": "votes",
              "type": "uint256"
            }
          ],
          "internalType": "struct IWakandaVotingPlatform.Candidate[3]",
          "name": "",
          "type": "tuple[3]"
        }
      ],
      "stateMutability": "view",
      "type": "function",
      "constant": true
    },
    {
      "inputs": [],
      "name": "endElection",
      "outputs": [],
      "stateMutability": "nonpayable",
      "type": "function"
    }
  ],
  "bytecode": "0x60806040523480156200001157600080fd5b5060405162002bbf38038062002bbf833981810160405281019062000037919062000760565b336000806101000a81548173ffffffffffffffffffffffffffffffffffffffff021916908373ffffffffffffffffffffffffffffffffffffffff16021790555083600160006101000a81548173ffffffffffffffffffffffffffffffffffffffff021916908373ffffffffffffffffffffffffffffffffffffffff160217905550620000cb838383620000d560201b60201c565b5050505062000a0f565b60008054906101000a900473ffffffffffffffffffffffffffffffffffffffff1673ffffffffffffffffffffffffffffffffffffffff163373ffffffffffffffffffffffffffffffffffffffff161462000166576040517f08c379a00000000000000000000000000000000000000000000000000000000081526004016200015d90620008dc565b60405180910390fd5b60005b8351811015620002875760006040518060800160405280868481518110620001965762000195620008fe565b5b60200260200101518152602001858481518110620001b957620001b8620008fe565b5b60200260200101518152602001848481518110620001dc57620001db620008fe565b5b6020026020010151815260200160008152509050600481908060018154018082558091505060019003906000526020600020906004020160009091909190915060008201518160000190805190602001906200023a9291906200028d565b50602082015181600101556040820151816002019080519060200190620002639291906200028d565b506060820151816003015550505080806200027e906200095c565b91505062000169565b50505050565b8280546200029b90620009d9565b90600052602060002090601f016020900481019282620002bf57600085556200030b565b82601f10620002da57805160ff19168380011785556200030b565b828001600101855582156200030b579182015b828111156200030a578251825591602001919060010190620002ed565b5b5090506200031a91906200031e565b5090565b5b80821115620003395760008160009055506001016200031f565b5090565b6000604051905090565b600080fd5b600080fd5b600073ffffffffffffffffffffffffffffffffffffffff82169050919050565b60006200037e8262000351565b9050919050565b6000620003928262000371565b9050919050565b620003a48162000385565b8114620003b057600080fd5b50565b600081519050620003c48162000399565b92915050565b600080fd5b6000601f19601f8301169050919050565b7f4e487b7100000000000000000000000000000000000000000000000000000000600052604160045260246000fd5b6200041a82620003cf565b810181811067ffffffffffffffff821117156200043c576200043b620003e0565b5b80604052505050565b6000620004516200033d565b90506200045f82826200040f565b919050565b600067ffffffffffffffff821115620004825762000481620003e0565b5b602082029050602081019050919050565b600080fd5b600080fd5b600067ffffffffffffffff821115620004bb57620004ba620003e0565b5b620004c682620003cf565b9050602081019050919050565b60005b83811015620004f3578082015181840152602081019050620004d6565b8381111562000503576000848401525b50505050565b6000620005206200051a846200049d565b62000445565b9050828152602081018484840111156200053f576200053e62000498565b5b6200054c848285620004d3565b509392505050565b600082601f8301126200056c576200056b620003ca565b5b81516200057e84826020860162000509565b91505092915050565b60006200059e620005988462000464565b62000445565b90508083825260208201905060208402830185811115620005c457620005c362000493565b5b835b818110156200061257805167ffffffffffffffff811115620005ed57620005ec620003ca565b5b808601620005fc898262000554565b85526020850194505050602081019050620005c6565b5050509392505050565b600082601f830112620006345762000633620003ca565b5b81516200064684826020860162000587565b91505092915050565b600067ffffffffffffffff8211156200066d576200066c620003e0565b5b602082029050602081019050919050565b6000819050919050565b62000693816200067e565b81146200069f57600080fd5b50565b600081519050620006b38162000688565b92915050565b6000620006d0620006ca846200064f565b62000445565b90508083825260208201905060208402830185811115620006f657620006f562000493565b5b835b818110156200072357806200070e8882620006a2565b845260208401935050602081019050620006f8565b5050509392505050565b600082601f830112620007455762000744620003ca565b5b815162000757848260208601620006b9565b91505092915050565b600080600080608085870312156200077d576200077c62000347565b5b60006200078d87828801620003b3565b945050602085015167ffffffffffffffff811115620007b157620007b06200034c565b5b620007bf878288016200061c565b935050604085015167ffffffffffffffff811115620007e357620007e26200034c565b5b620007f1878288016200072d565b925050606085015167ffffffffffffffff8111156200081557620008146200034c565b5b62000823878288016200061c565b91505092959194509250565b600082825260208201905092915050565b7f57616b616e6461566f74696e67506c6174666f726d3a3a61646443616e64696460008201527f617465733a204f6e6c79206f776e65722063616e206164642063616e6469646160208201527f7465730000000000000000000000000000000000000000000000000000000000604082015250565b6000620008c46043836200082f565b9150620008d18262000840565b606082019050919050565b60006020820190508181036000830152620008f781620008b5565b9050919050565b7f4e487b7100000000000000000000000000000000000000000000000000000000600052603260045260246000fd5b7f4e487b7100000000000000000000000000000000000000000000000000000000600052601160045260246000fd5b600062000969826200067e565b91507fffffffffffffffffffffffffffffffffffffffffffffffffffffffffffffffff8214156200099f576200099e6200092d565b5b600182019050919050565b7f4e487b7100000000000000000000000000000000000000000000000000000000600052602260045260246000fd5b60006002820490506001821680620009f257607f821691505b6020821081141562000a095762000a08620009aa565b5b50919050565b6121a08062000a1f6000396000f3fe608060405234801561001057600080fd5b50600436106100ea5760003560e01c806359f784681161008c578063c3c5a54711610066578063c3c5a5471461024e578063ca4ab70e1461027e578063ecb70fb7146102ae578063fc0c546a146102cc576100ea565b806359f78468146101f65780638da5cb5b14610200578063ab172cf51461021e576100ea565b8063377968d4116100c8578063377968d41461017057806338db6dd31461018e5780634d7b9bd5146101aa57806350d91583146101da576100ea565b806306a49fce146100ef57806309eef43e1461010d5780633477ee2e1461013d575b600080fd5b6100f76102ea565b6040516101049190611552565b60405180910390f35b610127600480360381019061012291906115d7565b610481565b604051610134919061161f565b60405180910390f35b61015760048036038101906101529190611666565b6104d7565b60405161016794939291906116ec565b60405180910390f35b610178610627565b60405161018591906117e1565b60405180910390f35b6101a860048036038101906101a391906115d7565b610800565b005b6101c460048036038101906101bf9190611803565b610981565b6040516101d1919061161f565b60405180910390f35b6101f460048036038101906101ef9190611843565b610a35565b005b6101fe610cda565b005b610208610d84565b60405161021591906118a5565b60405180910390f35b61023860048036038101906102339190611666565b610da8565b604051610245919061192a565b60405180910390f35b610268600480360381019061026391906115d7565b610f1c565b604051610275919061161f565b60405180910390f35b61029860048036038101906102939190611666565b610f72565b6040516102a5919061194c565b60405180910390f35b6102b6610f96565b6040516102c3919061161f565b60405180910390f35b6102d4610fa9565b6040516102e191906119c6565b60405180910390f35b60606004805480602002602001604051908101604052809291908181526020016000905b82821015610478578382906000526020600020906004020160405180608001604052908160008201805461034190611a10565b80601f016020809104026020016040519081016040528092919081815260200182805461036d90611a10565b80156103ba5780601f1061038f576101008083540402835291602001916103ba565b820191906000526020600020905b81548152906001019060200180831161039d57829003601f168201915b50505050508152602001600182015481526020016002820180546103dd90611a10565b80601f016020809104026020016040519081016040528092919081815260200182805461040990611a10565b80156104565780601f1061042b57610100808354040283529160200191610456565b820191906000526020600020905b81548152906001019060200180831161043957829003601f168201915b505050505081526020016003820154815250508152602001906001019061030e565b50505050905090565b6000600360008373ffffffffffffffffffffffffffffffffffffffff1673ffffffffffffffffffffffffffffffffffffffff16815260200190815260200160002060009054906101000a900460ff169050919050565b600481815481106104e757600080fd5b906000526020600020906004020160009150905080600001805461050a90611a10565b80601f016020809104026020016040519081016040528092919081815260200182805461053690611a10565b80156105835780601f1061055857610100808354040283529160200191610583565b820191906000526020600020905b81548152906001019060200180831161056657829003601f168201915b50505050509080600101549080600201805461059e90611a10565b80601f01602080910402602001604051908101604052809291908181526020018280546105ca90611a10565b80156106175780601f106105ec57610100808354040283529160200191610617565b820191906000526020600020905b8154815290600101906020018083116105fa57829003601f168201915b5050505050908060030154905084565b61062f61131f565b61063761131f565b60005b6005805490508110156107f85760046005828154811061065d5761065c611a42565b5b90600052602060002001548154811061067957610678611a42565b5b90600052602060002090600402016040518060800160405290816000820180546106a290611a10565b80601f01602080910402602001604051908101604052809291908181526020018280546106ce90611a10565b801561071b5780601f106106f05761010080835404028352916020019161071b565b820191906000526020600020905b8154815290600101906020018083116106fe57829003601f168201915b505050505081526020016001820154815260200160028201805461073e90611a10565b80601f016020809104026020016040519081016040528092919081815260200182805461076a90611a10565b80156107b75780601f1061078c576101008083540402835291602001916107b7565b820191906000526020600020905b81548152906001019060200180831161079a57829003601f168201915b505050505081526020016003820154815250508282600381106107dd576107dc611a42565b5b602002018190525080806107f090611aa0565b91505061063a565b508091505090565b61080981610f1c565b15610849576040517f08c379a000000000000000000000000000000000000000000000000000000000815260040161084090611b5b565b60405180910390fd5b600160149054906101000a900460ff1615610899576040517f08c379a000000000000000000000000000000000000000000000000000000000815260040161089090611bed565b60405180910390fd5b6001600260008373ffffffffffffffffffffffffffffffffffffffff1673ffffffffffffffffffffffffffffffffffffffff16815260200190815260200160002060006101000a81548160ff021916908315150217905550600160009054906101000a900473ffffffffffffffffffffffffffffffffffffffff1673ffffffffffffffffffffffffffffffffffffffff16636a627842826040518263ffffffff1660e01b815260040161094c91906118a5565b600060405180830381600087803b15801561096657600080fd5b505af115801561097a573d6000803e3d6000fd5b5050505050565b60008082118015610a2d575081600160009054906101000a900473ffffffffffffffffffffffffffffffffffffffff1673ffffffffffffffffffffffffffffffffffffffff166370a08231856040518263ffffffff1660e01b81526004016109e991906118a5565b602060405180830381865afa158015610a06573d6000803e3d6000fd5b505050506040513d601f19601f82011682018060405250810190610a2a9190611c22565b10155b905092915050565b600160149054906101000a900460ff1615610a85576040517f08c379a0000000000000000000000000000000000000000000000000000000008152600401610a7c90611cc1565b60405180910390fd5b610a8e81610481565b15610ace576040517f08c379a0000000000000000000000000000000000000000000000000000000008152600401610ac590611d53565b60405180910390fd5b610ad88183610981565b610b17576040517f08c379a0000000000000000000000000000000000000000000000000000000008152600401610b0e90611de5565b60405180910390fd5b60008310158015610b2c575060048054905083105b610b6b576040517f08c379a0000000000000000000000000000000000000000000000000000000008152600401610b6290611e77565b60405180910390fd5b600160009054906101000a900473ffffffffffffffffffffffffffffffffffffffff1673ffffffffffffffffffffffffffffffffffffffff16639dc29fac82846040518363ffffffff1660e01b8152600401610bc8929190611e97565b600060405180830381600087803b158015610be257600080fd5b505af1158015610bf6573d6000803e3d6000fd5b505050508160048481548110610c0f57610c0e611a42565b5b90600052602060002090600402016003016000828254610c2f9190611ec0565b92505081905550610c3f83610fcf565b158015610c61575060036005805490501080610c605750610c5f83611032565b5b5b15610c7457610c6f836110b3565b610c7d565b610c7c611177565b5b6001600360008373ffffffffffffffffffffffffffffffffffffffff1673ffffffffffffffffffffffffffffffffffffffff16815260200190815260200160002060006101000a81548160ff021916908315150217905550505050565b60008054906101000a900473ffffffffffffffffffffffffffffffffffffffff1673ffffffffffffffffffffffffffffffffffffffff163373ffffffffffffffffffffffffffffffffffffffff1614610d68576040517f08c379a0000000000000000000000000000000000000000000000000000000008152600401610d5f90611fae565b60405180910390fd5b60018060146101000a81548160ff021916908315150217905550565b60008054906101000a900473ffffffffffffffffffffffffffffffffffffffff1681565b610db061134c565b60048281548110610dc457610dc3611a42565b5b9060005260206000209060040201604051806080016040529081600082018054610ded90611a10565b80601f0160208091040260200160405190810160405280929190818152602001828054610e1990611a10565b8015610e665780601f10610e3b57610100808354040283529160200191610e66565b820191906000526020600020905b815481529060010190602001808311610e4957829003601f168201915b5050505050815260200160018201548152602001600282018054610e8990611a10565b80601f0160208091040260200160405190810160405280929190818152602001828054610eb590611a10565b8015610f025780601f10610ed757610100808354040283529160200191610f02565b820191906000526020600020905b815481529060010190602001808311610ee557829003601f168201915b505050505081526020016003820154815250509050919050565b6000600260008373ffffffffffffffffffffffffffffffffffffffff1673ffffffffffffffffffffffffffffffffffffffff16815260200190815260200160002060009054906101000a900460ff169050919050565b60058181548110610f8257600080fd5b906000526020600020016000915090505481565b600160149054906101000a900460ff1681565b600160009054906101000a900473ffffffffffffffffffffffffffffffffffffffff1681565b600080600090505b600580549050811015611027578260058281548110610ff957610ff8611a42565b5b9060005260206000200154141561101457600191505061102d565b808061101f90611aa0565b915050610fd7565b50600090505b919050565b60008060058054905011156110ad57600560016005805490506110559190611fce565b8154811061106657611065611a42565b5b90600052602060002001546004838154811061108557611084611a42565b5b906000526020600020906004020160030154116110a35760006110a6565b60015b90506110ae565b5b919050565b600360058054905010156110ef57600581908060018154018082558091505060019003906000526020600020016000909190919091505561111c565b80600560028154811061110557611104611a42565b5b906000526020600020018190555061111b611177565b5b7f50a2557849d67557469639ee41d82ba4ea007b58e1fcd98f0c795828d35901c06004828154811061115157611150611a42565b5b906000526020600020906004020160405161116c9190612148565b60405180910390a150565b60005b600160058054905061118c9190611fce565b81101561131c5760005b6001826005805490506111a99190611fce565b6111b39190611fce565b81101561130857600460056001836111cb9190611ec0565b815481106111dc576111db611a42565b5b9060005260206000200154815481106111f8576111f7611a42565b5b9060005260206000209060040201600301546004600583815481106112205761121f611a42565b5b90600052602060002001548154811061123c5761123b611a42565b5b90600052602060002090600402016003015410156112f55760006005828154811061126a57611269611a42565b5b9060005260206000200154905060056001836112869190611ec0565b8154811061129757611296611a42565b5b9060005260206000200154600583815481106112b6576112b5611a42565b5b90600052602060002001819055508060056001846112d49190611ec0565b815481106112e5576112e4611a42565b5b9060005260206000200181905550505b808061130090611aa0565b915050611196565b50808061131490611aa0565b91505061117a565b50565b60405180606001604052806003905b61133661134c565b81526020019060019003908161132e5790505090565b6040518060800160405280606081526020016000815260200160608152602001600081525090565b600081519050919050565b600082825260208201905092915050565b6000819050602082019050919050565b600081519050919050565b600082825260208201905092915050565b60005b838110156113da5780820151818401526020810190506113bf565b838111156113e9576000848401525b50505050565b6000601f19601f8301169050919050565b600061140b826113a0565b61141581856113ab565b93506114258185602086016113bc565b61142e816113ef565b840191505092915050565b6000819050919050565b61144c81611439565b82525050565b6000608083016000830151848203600086015261146f8282611400565b91505060208301516114846020860182611443565b506040830151848203604086015261149c8282611400565b91505060608301516114b16060860182611443565b508091505092915050565b60006114c88383611452565b905092915050565b6000602082019050919050565b60006114e882611374565b6114f2818561137f565b93508360208202850161150485611390565b8060005b85811015611540578484038952815161152185826114bc565b945061152c836114d0565b925060208a01995050600181019050611508565b50829750879550505050505092915050565b6000602082019050818103600083015261156c81846114dd565b905092915050565b600080fd5b600073ffffffffffffffffffffffffffffffffffffffff82169050919050565b60006115a482611579565b9050919050565b6115b481611599565b81146115bf57600080fd5b50565b6000813590506115d1816115ab565b92915050565b6000602082840312156115ed576115ec611574565b5b60006115fb848285016115c2565b91505092915050565b60008115159050919050565b61161981611604565b82525050565b60006020820190506116346000830184611610565b92915050565b61164381611439565b811461164e57600080fd5b50565b6000813590506116608161163a565b92915050565b60006020828403121561167c5761167b611574565b5b600061168a84828501611651565b91505092915050565b600082825260208201905092915050565b60006116af826113a0565b6116b98185611693565b93506116c98185602086016113bc565b6116d2816113ef565b840191505092915050565b6116e681611439565b82525050565b6000608082019050818103600083015261170681876116a4565b905061171560208301866116dd565b818103604083015261172781856116a4565b905061173660608301846116dd565b95945050505050565b600060039050919050565b600081905092915050565b6000819050919050565b6000602082019050919050565b60006117778261173f565b611781818561174a565b93508360208202850161179385611755565b8060005b858110156117cf57848403895281516117b085826114bc565b94506117bb8361175f565b925060208a01995050600181019050611797565b50829750879550505050505092915050565b600060208201905081810360008301526117fb818461176c565b905092915050565b6000806040838503121561181a57611819611574565b5b6000611828858286016115c2565b925050602061183985828601611651565b9150509250929050565b60008060006060848603121561185c5761185b611574565b5b600061186a86828701611651565b935050602061187b86828701611651565b925050604061188c868287016115c2565b9150509250925092565b61189f81611599565b82525050565b60006020820190506118ba6000830184611896565b92915050565b600060808301600083015184820360008601526118dd8282611400565b91505060208301516118f26020860182611443565b506040830151848203604086015261190a8282611400565b915050606083015161191f6060860182611443565b508091505092915050565b6000602082019050818103600083015261194481846118c0565b905092915050565b600060208201905061196160008301846116dd565b92915050565b6000819050919050565b600061198c61198761198284611579565b611967565b611579565b9050919050565b600061199e82611971565b9050919050565b60006119b082611993565b9050919050565b6119c0816119a5565b82525050565b60006020820190506119db60008301846119b7565b92915050565b7f4e487b7100000000000000000000000000000000000000000000000000000000600052602260045260246000fd5b60006002820490506001821680611a2857607f821691505b60208210811415611a3c57611a3b6119e1565b5b50919050565b7f4e487b7100000000000000000000000000000000000000000000000000000000600052603260045260246000fd5b7f4e487b7100000000000000000000000000000000000000000000000000000000600052601160045260246000fd5b6000611aab82611439565b91507fffffffffffffffffffffffffffffffffffffffffffffffffffffffffffffffff821415611ade57611add611a71565b5b600182019050919050565b7f57616b616e6461566f74696e67506c6174666f726d3a3a72656769737465725660008201527f6f7465723a20566f74657220616c726561647920726567697374657265640000602082015250565b6000611b45603e83611693565b9150611b5082611ae9565b604082019050919050565b60006020820190508181036000830152611b7481611b38565b9050919050565b7f57616b616e6461566f74696e67506c6174666f726d3a3a72656769737465725660008201527f6f7465723a20456c656374696f6e2068617320656e6465640000000000000000602082015250565b6000611bd7603883611693565b9150611be282611b7b565b604082019050919050565b60006020820190508181036000830152611c0681611bca565b9050919050565b600081519050611c1c8161163a565b92915050565b600060208284031215611c3857611c37611574565b5b6000611c4684828501611c0d565b91505092915050565b7f57616b616e6461566f74696e67506c6174666f726d3a3a766f74653a20456c6560008201527f6374696f6e2068617320656e6465640000000000000000000000000000000000602082015250565b6000611cab602f83611693565b9150611cb682611c4f565b604082019050919050565b60006020820190508181036000830152611cda81611c9e565b9050919050565b7f57616b616e6461566f74696e67506c6174666f726d3a3a766f74653a20596f7560008201527f206861766520616c726561647920766f74656400000000000000000000000000602082015250565b6000611d3d603383611693565b9150611d4882611ce1565b604082019050919050565b60006020820190508181036000830152611d6c81611d30565b9050919050565b7f57616b616e6461566f74696e67506c6174666f726d3a3a766f74653a20496e7360008201527f756666696369656e742066756e64730000000000000000000000000000000000602082015250565b6000611dcf602f83611693565b9150611dda82611d73565b604082019050919050565b60006020820190508181036000830152611dfe81611dc2565b9050919050565b7f57616b616e6461566f74696e67506c6174666f726d3a3a766f74653a20496e7660008201527f616c69642063616e646964617465204944000000000000000000000000000000602082015250565b6000611e61603183611693565b9150611e6c82611e05565b604082019050919050565b60006020820190508181036000830152611e9081611e54565b9050919050565b6000604082019050611eac6000830185611896565b611eb960208301846116dd565b9392505050565b6000611ecb82611439565b9150611ed683611439565b9250827fffffffffffffffffffffffffffffffffffffffffffffffffffffffffffffffff03821115611f0b57611f0a611a71565b5b828201905092915050565b7f57616b616e6461566f74696e67506c6174666f726d3a3a656e64456c6563746960008201527f6f6e3a204f6e6c79206f776e65722063616e20656e642074686520656c65637460208201527f696f6e0000000000000000000000000000000000000000000000000000000000604082015250565b6000611f98604383611693565b9150611fa382611f16565b606082019050919050565b60006020820190508181036000830152611fc781611f8b565b9050919050565b6000611fd982611439565b9150611fe483611439565b925082821015611ff757611ff6611a71565b5b828203905092915050565b60008190508160005260206000209050919050565b6000815461202481611a10565b61202e81866113ab565b94506001821660008114612049576001811461205b5761208e565b60ff198316865260208601935061208e565b61206485612002565b60005b8381101561208657815481890152600182019150602081019050612067565b808801955050505b50505092915050565b60008160001c9050919050565b6000819050919050565b60006120c16120bc83612097565b6120a4565b9050919050565b600060808301600080840185830360008701526120e58382612017565b925050600184015490506120f8816120ae565b6121056020870182611443565b5060028401858303604087015261211c8382612017565b9250506003840154905061212f816120ae565b61213c6060870182611443565b50819250505092915050565b6000602082019050818103600083015261216281846120c8565b90509291505056fea2646970667358221220256c5e5610485ce9bf54e7619b0980b7173cf89c6ee71074808b5a3c3b9a5c0d64736f6c634300080b0033",
  "immutableReferences": {},
  "source": "//SPDX-License-Identifier: MIT\r\npragma solidity ^0.8.0;\r\n\r\nimport './interfaces/IWakandaVotingPlatform.sol';\r\nimport './WKND.sol';\r\n\r\ncontract WakandaVotingPlatform is IWakandaVotingPlatform{\r\n\r\n    address public owner;\r\n    WKND public token;\r\n\r\n    bool public hasEnded;\r\n\r\n    mapping(address => bool) registeredVoters;\r\n    mapping(address => bool) voted;\r\n\r\n    Candidate[] public candidates;\r\n    uint256[] public leadingCandidates;\r\n\r\n    constructor (WKND _token, string[] memory allNames, uint256[] memory allAges, string[] memory allCults){\r\n        owner = msg.sender;\r\n        token = _token;\r\n\r\n        addCandidates(allNames, allAges, allCults);\r\n    }\r\n\r\n    function addCandidates(string[] memory allNames, uint256[] memory allAges, string[] memory allCults) internal{\r\n        require(msg.sender == owner, \"WakandaVotingPlatform::addCandidates: Only owner can add candidates\");\r\n\r\n        for(uint i = 0; i < allNames.length; i++){\r\n            Candidate memory candidate = Candidate(allNames[i], allAges[i], allCults[i], 0);\r\n            candidates.push(candidate);\r\n        }\r\n    }\r\n\r\n    function getCandidates() override external view returns(Candidate[] memory){\r\n        return candidates;\r\n    }\r\n\r\n    function getCandidateByIndex(uint256 index) override external view returns(Candidate memory){\r\n        return candidates[index];\r\n    }\r\n\r\n    function isRegistered(address voterAddress) override public view returns (bool){\r\n        return registeredVoters[voterAddress];\r\n    }\r\n\r\n    function registerVoter(address voterAddress) override external { \r\n        require(!isRegistered(voterAddress), \"WakandaVotingPlatform::registerVoter: Voter already registered\");\r\n        require(!hasEnded, \"WakandaVotingPlatform::registerVoter: Election has ended\");\r\n        \r\n        registeredVoters[voterAddress] = true;\r\n        token.mint(voterAddress);\r\n    }\r\n\r\n    function checkBalance(address voterAddress, uint256 amount) override public view returns(bool){\r\n        return amount > 0 && token.balanceOf(voterAddress) >= amount;\r\n    }\r\n\r\n    //check if the candidate is already in a leading position\r\n    function isLeading(uint256 candidateId) internal view returns(bool){\r\n        for(uint i = 0; i < leadingCandidates.length; i++){\r\n            if(leadingCandidates[i] == candidateId)\r\n                return true;\r\n        }\r\n\r\n        return false;\r\n    }\r\n\r\n    //returns true if the candidate has potential to enter a leading position\r\n    function hasPotential(uint256 candidateId) internal view returns(bool){\r\n        if(leadingCandidates.length > 0){\r\n            return candidates[candidateId].votes > leadingCandidates[leadingCandidates.length-1] ? true : false;\r\n        }\r\n    }\r\n\r\n    function sortLeading() internal {\r\n        for(uint i = 0; i < leadingCandidates.length-1; i++){\r\n            for(uint j = 0; j < leadingCandidates.length-i-1; j++){\r\n                if(candidates[leadingCandidates[j]].votes < candidates[leadingCandidates[j+1]].votes){\r\n                    uint256 tmp = leadingCandidates[j];\r\n                    leadingCandidates[j] = leadingCandidates[j+1];\r\n                    leadingCandidates[j+1] = tmp;\r\n                }\r\n            }\r\n        }\r\n    }\r\n\r\n    function pushToLeading(uint256 candidateId) internal {\r\n        if(leadingCandidates.length < 3){\r\n            leadingCandidates.push(candidateId);\r\n        }else{\r\n            leadingCandidates[2] = candidateId;\r\n            sortLeading();\r\n        }\r\n\r\n        emit NewChallenger(candidates[candidateId]);\r\n    }\r\n\r\n    function hasVoted(address voterAddress) override public view returns(bool){\r\n        return voted[voterAddress];\r\n    }\r\n\r\n    function vote(uint256 candidateId, uint256 voteAmount, address voterAddress) override external{\r\n        require(!hasEnded, \"WakandaVotingPlatform::vote: Election has ended\");\r\n        require(!hasVoted(voterAddress), \"WakandaVotingPlatform::vote: You have already voted\");\r\n        require(checkBalance(voterAddress, voteAmount), \"WakandaVotingPlatform::vote: Insufficient funds\");\r\n        require(candidateId >= 0 && candidateId < candidates.length, \"WakandaVotingPlatform::vote: Invalid candidate ID\");\r\n\r\n        token.burn(voterAddress, voteAmount);\r\n        candidates[candidateId].votes+=voteAmount;\r\n\r\n        if(!isLeading(candidateId) && (leadingCandidates.length < 3 || hasPotential(candidateId))){\r\n            pushToLeading(candidateId);\r\n        }else{\r\n            sortLeading();\r\n        }\r\n\r\n        voted[voterAddress] = true;\r\n    }\r\n\r\n    function winningCandidates() override external view returns(Candidate[3] memory){\r\n        Candidate[3] memory leading;\r\n        \r\n        for(uint i = 0; i < leadingCandidates.length; i++){\r\n            leading[i] = candidates[leadingCandidates[i]];\r\n        }\r\n\r\n        return leading;\r\n    }\r\n\r\n    function endElection() override external {\r\n        require(msg.sender == owner, \"WakandaVotingPlatform::endElection: Only owner can end the election\");\r\n\r\n        hasEnded = true;\r\n    }\r\n}",
  "sourcePath": "D:/WakandaForever/Internship-assignment/smart-contracts/contracts/WakandaVotingPlatform.sol",
  "compiler": {
    "name": "solc",
    "version": "0.8.11+commit.d7f03943.Emscripten.clang"
  },
  "schemaVersion": "3.4.1",
  "updatedAt": "2022-02-23T01:41:58.467Z",
  "networkType": "ethereum",
  "devdoc": {
    "kind": "dev",
    "methods": {},
    "version": 1
  },
  "userdoc": {
    "kind": "user",
    "methods": {},
    "version": 1
  }
}